:020000040800F2
:1000000000800020DD100008090F00080F0F000815
:10001000150F00081B0F0008210F0008000000004A
:10002000000000000000000000000000270F000892
:100030002D0F000800000000330F0008390F0008E2
:100040003F0F0008450F00084B0F0008510F000834
:10005000570F00085D0F0008630F0008690F0008C4
:100060006F0F0008750F00087B0F0008810F000854
:10007000870F00088D0F0008930F0008990F0008E4
:100080009F0F000800000000A50F0008AB0F00083C
:10009000B10F0008B70F0008BD0F0008C30F00081C
:1000A000C90F0008CF0F0008D50F0008DB0F0008AC
:1000B000E10F0008E70F0008F90B0008ED0F00083A
:1000C000F30F0008F90F0008FF0F000805100008E3
:1000D0000B10000811100008171000081D10000870
:1000E00023100008291000082F1000083510000800
:1000F0003B100008411000084710000800000000F5
:10010000000000004D10000800000000531000081F
:1001100059100008000000005F100008651000087A
:100120006B10000871100008771000087D1000089F
:100130008310000800000000000000008910000883
:100140008F1000089510000800000000000000005B
:10015000000000000000000000000000000000009F
:100160000000000000000000000000009B100008DC
:10017000A1100008000000000000000000000000C6
:1001800000000000A71000080000000000000000B0
:10019000000000000000000000000000000000005F
:1001A0000000000000000000AD100008B3100008BF
:1001B000B9100008BF100008C510000800000000BA
:1001C00000000000CB10000800000000000000004C
:0801D000D1100008D71000084F
:1001D80010B5054C237833B9044B13B10448AFF379
:1001E80000800123237010BD1800002000000000CB
:1001F8002C20000808B5034B1BB103490348AFF393
:10020800008008BD000000001C0000202C20000811
:1002180080B500AF314B1B68304A43F480731360DC
:100228002F4B1B682E4A43F48033136000BF2C4BBE
:100238001B6803F40033002BF9D0284B1B68274AAE
:1002480043F008031360264B9B68254A23F4125396
:100258009360234B0022DA60214BDB68204A23F0AD
:10026800C063D3601E4BDB681D4A43F08073D360C4
:100278001B4BDB681A4A23F0F003D360184BDB688A
:10028800174A43F01003D360154BDB68144A43F454
:10029800AA43D360124BDB68114A43F00303D360CF
:1002A8000F4B1B680E4A43F08073136000BF0C4B62
:1002B8001B6803F00073002BF9D0094B9B68084AB0
:1002C80043F00303936000BF054B9B6803F00C03E6
:1002D800002BF9D000F0AAFD00BF80BD002002402D
:1002E8000010024080B400AF034B80229A6200BF26
:1002F800BD4680BC704700BF0004004880B400AF12
:10030800034B80229A6100BFBD4680BC704700BF86
:100318000004004880B500AF054B20229A620520F2
:1003280000F0CAFC024B20229A6100BF80BD00BFCA
:100338000004004880B582B000AF0346FB71064B4D
:1003480040229A62FB1D0121184600F089FC00BF7B
:100358000837BD4680BD00BF0004004880B582B0A4
:1003680000AF78603960054B40229A613968786837
:1003780000F076FC00BF0837BD4680BD0004004889
:1003880080B584B000AF78607B685A1C7A601B78AF
:10039800FB7334E07B685A1C7A601B78FB72FB7A2B
:1003A8001846FFF7C7FF7B685A1C7A601B78BB7238
:1003B800BB7A9BB203F08003BB81BB7A03F07F0357
:1003C800BB72BB7A002B08D0BB7A19467868FFF756
:1003D800C5FFBB7A7A6813447B60BB89002B0ED0BB
:1003E8007B685A1C7A601B78BB81BB89FF2B02D1C2
:1003F8004FF4FA73BB81BB89184600F05DFCFB7BA8
:100408005A1EFA73002BC5D100BF00BF1037BD4676
:1004180080BD90B585B000AF0446084611461A461F
:100428002346FB710346BB710B467B7113463B7138
:100438002A20FFF77FFF00233B73FB790233DBB2EF
:100448007B730023BB737B790233DBB2FB7307F149
:100458000C0304211846FFF781FF2B20FFF76AFFE2
:10046800BB790333DBB27B733B790333DBB2FB73BA
:1004780007F10C0304211846FFF770FF2C20FFF743
:1004880059FF00BF1437BD4690BD000080B500AFCE
:10049800FFF728FFFFF73EFF0648FFF771FF064802
:1004A800FFF76EFF0548FFF76BFFFFF727FF00BF59
:1004B80080BD00BF8C1F0008C81F0008D81F000897
:1004C80082B090B589B000AF7B630346FB800B46D2
:1004D800BB801346FB70FFF705FFFB88D8B2BB88CB
:1004E800D9B2FB88DAB297F834301344DBB2013B57
:1004F800DCB2BB88DAB297F835301344DBB2013B83
:10050800DBB22246FFF785FF0023FB6143E0BA6BAD
:10051800FB78203B97F8351001FB03F31946FB697C
:100528000B445B0013441B887B610023BB6129E0FB
:100538007A69BB6902FA03F303F40043002B0ED077
:10054800BB8F1B0A9BB2DBB23B74BB8FDBB27B74E5
:1005580007F1100302211846FFF700FF0FE0B7F874
:1005680040301B0A9BB2DBB23B73B7F84030DBB2BA
:100578007B7307F10C0302211846FFF7EFFEBB69F6
:100588000133BB6197F834301A46BB699342CFD325
:10059800FB690133FB6197F835301A46FB699342D2
:1005A800B5D3FFF7ABFE00BF2437BD46BDE890408A
:1005B80002B0704782B080B586B004AF3A607B6104
:1005C8000346FB800B46BB80FFF78CFE2DE0FB88C3
:1005D8003A7D13447F2B13DD0023FB807B7D9AB289
:1005E800BB881344BB80BB887A7D13447F2B21DCF6
:1005F8003B681B78202B03D13B6801333B6014E038
:100608003B681A78B988F8883B8C0293BB8B0193B6
:10061800BB6900937B69FFF753FF3B7D9AB2FB8868
:100628001344FB803B6801333B603B681B78002B1D
:10063800CDD100E000BFFFF761FE00BF0837BD461F
:10064800BDE8804002B0704790B585B000AF044661
:10065800084611461A462346FB800346BB800B46D4
:100668007B8013463B80FB887F2B53D8BB887F2B2E
:1006780050D8FA887B881344802B03DDFB88C3F1AC
:1006880080037B80BA883B881344802B03DDBB88BA
:10069800C3F180033B80FFF725FEFB88D8B2BB88F7
:1006A800D9B2FB88DAB27B88DBB21344DBB2013BF8
:1006B800DCB2BB88DAB23B88DBB21344DBB2013B65
:1006C800DBB22246FFF7A5FE3B8C1B0A9BB2DBB2CE
:1006D8003B733B8CDBB27B73104B40229A613B88A7
:1006E800BB8011E07B88FB8008E007F10C03022146
:1006F800184600F0B5FAFB88013BFB80FB88002B0D
:10070800F3D1BB88013BBB80BB88002BEAD1FFF744
:10071800F5FD00E000BF1437BD4690BD0004004859
:1007280080B584B002AF0346FB80FB88009380232A
:10073800802200210020FFF787FF00BF0837BD4651
:1007480080BD000080B584B000AF0346FB71FB7923
:1007580003F00303DAB2474B1A70474B80229A62C0
:100768003620FFF7E7FD434B1B78032B7AD801A20D
:1007780052F823F08D070008C9070008050800088B
:10078800310800083D4B1A783C4B5B781343DAB2CA
:100798003A4BDB781343DBB2FB7307F10F030121FC
:1007A8001846FFF7DBFD364B80221A80354B802236
:1007B8001A80354B02221A70344B03221A7051E00A
:1007C8002E4B5A782D4B9B781343DAB22B4BDB78A0
:1007D8001343DBB2BB7307F10E0301211846FFF781
:1007E800BDFD274B80221A80264B80221A80264B7B
:1007F80003221A70254B02221A7033E01F4BDB7854
:100808007B7307F10D0301211846FFF7A7FD1C4B69
:1008180080221A801B4B80221A801B4B02221A70DE
:100828001A4B03221A701DE0144B1A78134B9B784D
:100838001343DAB2114BDB781343DBB23B7307F196
:100848000C0301211846FFF789FD0D4B80221A8001
:100858000C4B80221A800C4B03221A700B4B02227D
:100868001A7000BF044B80229A6100BF1037BD4642
:1008780080BD00BF340000200004004808000020AC
:100888000E0000200C0000201000002011000020A5
:1008980080B588B000AF0346FB710B46BB711346A9
:1008A8007B713B4BB3F90030DAB2FB79D31ADAB279
:1008B800BB79D31AFB770023BB7700233B74FB7902
:1008C8007B740023BB74FB7FFB7400233B75BB79EF
:1008D8007B753320FFF72EFD07F11003062118461C
:1008E800FFF73CFD3620FFF725FD02237B777B7958
:1008F800002B24D07B7F002B08D1D823FB7307F172
:100908000F03BB610121B869FFF728FD7B7F012B2D
:1009180008D1D023BB7307F10E03BB610121B8696D
:10092800FFF71CFD7B7F022B2DD118237B7307F16A
:100938000D03BB610121B869FFF710FD23E07B7F40
:10094800002B08D1C8233B7307F10C03BB610121BD
:10095800B869FFF703FD7B7F012B08D1C023FB7229
:1009680007F10B03BB610121B869FFF7F7FC7B7F37
:10097800022B08D10823BB7207F10A03BB610121CE
:10098800B869FFF7EBFC00BF2037BD4680BD00BF4C
:100998000C00002080B584B000AF0346FB71002333
:1009A800FB7207F10B03FB603720FFF7C3FC012143
:1009B800F868FFF7D3FCFB1DFB600121F868FFF71F
:1009C800CDFC00BF1037BD4680BD000080B483B0A9
:1009D80000AF0346FB7197F90730002B0BDBFB795F
:1009E80003F01F02064997F907305B09012000FA56
:1009F80002F241F8232000BF0C37BD4680BC704787
:100A080000E100E080B485B000AF7860084BDA6C94
:100A180007497B681343CB64054BDA6C7B6813404A
:100A2800FB60FB6800BF1437BD4680BC704700BF41
:100A38000010024080B485B000AF7860084B9A6D12
:100A480007497B6813438B65054B9A6D7B68134098
:100A5800FB60FB6800BF1437BD4680BC704700BF11
:100A68000010024080B485B000AF7860084B1A6E61
:100A780007497B6813430B66054B1A6E7B68134066
:100A8800FB60FB6800BF1437BD4680BC704700BFE1
:100A98000010024080B483B000AF786039607B6892
:100AA8003A689A6200BF0C37BD4680BC704780B474
:100AB80083B000AF786039607B685A693B685A40F8
:100AC8007B685A6100BF0C37BD4680BC704780B454
:100AD80083B000AF786039607B681B6823F004023C
:100AE8003B681A437B681A6000BF0C37BD4680BC60
:100AF800704780B483B000AF78607B68DB6843F0F0
:100B080001027B68DA6000BF0C37BD4680BC7047C5
:100B180080B483B000AF78607B685B6943F0010202
:100B28007B685A6100BF0C37BD4680BC704780B4F3
:100B380083B000AF78607B681B6843F040027B6835
:100B48001A6000BF0C37BD4680BC704780B586B0C0
:100B580004AFFFF75DFB00F019F900F033F900F07E
:100B6800CDF800F05BF800237B600AE001214FF02C
:100B78009040FFF79CFF642000F09EF87B680133EB
:100B88007B607B68092BF1DDFFF780FC0420FFF711
:100B9800D9FD0020FFF7C4FD134B002202921F224B
:100BA80001925A6800921B68104A00210020FFF742
:100BB80001FD0123BB700023FB70002200210020EF
:100BC800FFF766FEFB781846FFF7E4FEFB78013373
:100BD800FB7097F90330002B01DA0023FB706420C7
:100BE80000F06AF8EEE700BF000000206C1700086C
:100BF80080B400AF074B1B69064A23F00103136159
:100C0800054B1B680133044A136000BFBD4680BC16
:100C1800704700BF000800403800002080B586B04B
:100C280000AF0220FFF7EEFEE0210C48FFF732FF8D
:100C38003B46184600F0E0FB01237B600023FB6085
:100C4800E0233B600023BB603B461946034800F0A5
:100C580064FB00BF1837BD4680BD00BF00040048D4
:100C680080B485B000AF78603960114BFB600FE04D
:100C780000BF104B9B6803F00203002BF9D07B6880
:100C88005A1C7A601A78FB681A703B68013B3B6013
:100C98003B68002BECD100BF064B9B6803F0800338
:100CA800002BF9D100BF00BF1437BD4680BC704788
:100CB8000C3001400030014080B483B000AF786050
:100CC8000C4B1B680B4A43F0010313600A4B0022CC
:100CD8001A6000BF084B1B687A689A42FAD8054B1D
:100CE8001B68044A23F00103136000BF0C37BD469C
:100CF80080BC7047000800403800002080B590B0E4
:100D080000AF4FF48050FFF7ADFE0120FFF77AFEE9
:100D180007F12803184600F06FFB0523FB63022345
:100D2800FB622023BB6203233B6307F128031946B8
:100D38004FF0904000F0F1FA8023BB6207F12803DE
:100D480019464FF0904000F0E8FA3B46184600F08C
:100D5800E4FB1023BB614FF482737B604FF4404384
:100D68003B604FF400737B614FF4E063BB603B462C
:100D78001946054800F07DFB0348FFF7D8FE00BF81
:100D88004037BD4680BD00BF0030014080B586B009
:100D980000AF0120FFF736FE3B46184600F02CFB5B
:100DA80001237B600023FB6001233B600323BB60BE
:100DB8003B4619464FF0904000F0AFFA00BF183795
:100DC800BD4680BD80B586B000AF0420FFF732FE77
:100DD8003B1D184600F0FFFB4FF47A73FB60AA2313
:100DE800BB8004210A48FFF772FE0948FFF781FE1D
:100DF8000748FFF78DFE3B1D1946054800F004FC27
:100E08001E20FFF7E3FD00BF1837BD4680BD00BFB9
:100E18000008004080B400AF034B4FF000629A60B6
:100E280000BFBD4680BC704700ED00E080B487B0CD
:100E380000AF2E4B9B6803F00C030C2B0ED00C2B31
:100E48003ED8042B02D0082B04D039E0284B294A7D
:100E58001A6036E0264B284A1A6032E0234BDB68DA
:100E680003F003033B61214BDB681B0903F00F030D
:100E78000133FB603B69022B05D11E4AFB68B2FBBC
:100E8800F3F37B6104E01C4AFB68B2FBF3F37B617C
:100E9800164BDB681B0A03F07F027B6902FB03F336
:100EA8007B61124BDB685B0E03F0030301335B00CD
:100EB800BB607A69BB68B2FBF3F30D4A136000E0CC
:100EC80000BF0A4B9B681B0903F00F030B4AD35C56
:100ED8007B60074B1A687B6822FA03F3044A1360A5
:100EE80000BF1C37BD4680BC704700BF00100240E1
:100EF800140000200024F40000127A0004200008E6
:100F0800FFBE704700BFFFBE704700BFFFBE7047FF
:100F180000BFFFBE704700BFFFBE704700BFFFBEE7
:100F2800704700BFFFBE704700BFFFBE704700BFDD
:100F3800FFBE704700BFFFBE704700BFFFBE7047CF
:100F480000BFFFBE704700BFFFBE704700BFFFBEB7
:100F5800704700BFFFBE704700BFFFBE704700BFAD
:100F6800FFBE704700BFFFBE704700BFFFBE70479F
:100F780000BFFFBE704700BFFFBE704700BFFFBE87
:100F8800704700BFFFBE704700BFFFBE704700BF7D
:100F9800FFBE704700BFFFBE704700BFFFBE70476F
:100FA80000BFFFBE704700BFFFBE704700BFFFBE57
:100FB800704700BFFFBE704700BFFFBE704700BF4D
:100FC800FFBE704700BFFFBE704700BFFFBE70473F
:100FD80000BFFFBE704700BFFFBE704700BFFFBE27
:100FE800704700BFFFBE704700BFFFBE704700BF1D
:100FF800FFBE704700BFFFBE704700BFFFBE70470F
:1010080000BFFFBE704700BFFFBE704700BFFFBEF6
:10101800704700BFFFBE704700BFFFBE704700BFEC
:10102800FFBE704700BFFFBE704700BFFFBE7047DE
:1010380000BFFFBE704700BFFFBE704700BFFFBEC6
:10104800704700BFFFBE704700BFFFBE704700BFBC
:10105800FFBE704700BFFFBE704700BFFFBE7047AE
:1010680000BFFFBE704700BFFFBE704700BFFFBE96
:10107800704700BFFFBE704700BFFFBE704700BF8C
:10108800FFBE704700BFFFBE704700BFFFBE70477E
:1010980000BFFFBE704700BFFFBE704700BFFFBE66
:1010A800704700BFFFBE704700BFFFBE704700BF5C
:1010B800FFBE704700BFFFBE704700BFFFBE70474E
:1010C80000BFFFBE704700BFFFBE704700BFFFBE36
:1010D800704700BF0C4D0D4C03E02B6823600435AE
:1010E80004340B4B9C42F8D10A4C02E000232360E5
:1010F8000434094B9C42F9D1FFF78CFE00F00EFB3B
:10110800FFF724FDFEE700BF3420000800000020A0
:1011180018000020180000203C00002080B489B08E
:1011280000AFF860B9607A60FB681A68BB687B61D9
:101138007B6993FAA3F33B613B69B3FA83F3DBB2B0
:101148005B00032101FA03F3DB431A40BB68FB6130
:10115800FB6993FAA3F3BB61BB69B3FA83F3DBB210
:101168005B00796801FA03F31A43FB681A6000BF51
:101178002437BD4680BC704780B485B000AFF860A6
:10118800B9607A60FB685A68BB68DB431A40BB6881
:10119800796801FB03F31A43FB685A6000BF1437F0
:1011A800BD4680BC704780B489B000AFF860B960B4
:1011B8007A60FB689A68BB687B617B6993FAA3F3E2
:1011C8003B613B69B3FA83F3DBB25B00032101FAAD
:1011D80003F3DB431A40BB68FB61FB6993FAA3F393
:1011E800BB61BB69B3FA83F3DBB25B00796801FAD0
:1011F80003F31A43FB689A6000BF2437BD4680BCDE
:10120800704780B489B000AFF860B9607A60FB6855
:10121800DA68BB687B617B6993FAA3F33B613B693E
:10122800B3FA83F3DBB25B00032101FA03F3DB4378
:101238001A40BB68FB61FB6993FAA3F3BB61BB6906
:10124800B3FA83F3DBB25B00796801FA03F31A435C
:10125800FB68DA6000BF2437BD4680BC704780B4A5
:1012680089B000AFF860B9607A60FB681A6ABB6839
:101278007B617B6993FAA3F33B613B69B3FA83F320
:10128800DBB29B000F2101FA03F3DB431A40BB6872
:10129800FB61FB6993FAA3F3BB61BB69B3FA83F300
:1012A800DBB29B00796801FA03F31A43FB681A6200
:1012B80000BF2437BD4680BC704780B489B000AFFA
:1012C800F860B9607A60FB685A6ABB681B0A7B6180
:1012D8007B6993FAA3F33B613B69B3FA83F3DBB20F
:1012E8009B000F2101FA03F3DB431A40BB681B0A7A
:1012F800FB61FB6993FAA3F3BB61BB69B3FA83F3A0
:10130800DBB29B00796801FA03F31A43FB685A625F
:1013180000BF2437BD4680BC704780B586B000AF9B
:10132800786039603B681B68FB60FB6893FAA3F33D
:10133800BB60BB68B3FA83F3DBB27B6140E03B6818
:101348001A6801217B6901FA03F313403B613B6989
:10135800002B32D03B685B681A4639697868FFF71A
:10136800DDFE3B685B68012B03D03B685B68022BA2
:1013780006D13B689B681A4639697868FFF713FFFE
:101388003B681B691A4639697868FFF73AFF3B687A
:101398005B68022B11D13B69FF2B07D83B685B695F
:1013A8001A4639697868FFF75AFF06E03B685B69B7
:1013B8001A4639697868FFF780FF7B6901337B61DA
:1013C8003B681A687B6922FA03F3002BB7D13B68A4
:1013D8005B68012B03D03B685B68022B07D13B6835
:1013E80019683B68DB681A467868FFF7C5FE002372
:1013F80018461837BD4680BD80B483B000AF78600A
:101408007B684FF6FF721A607B6803225A607B681C
:1014180000229A607B680022DA607B6800221A61E9
:101428007B6800225A6100BF0C37BD4680BC7047FC
:1014380080B483B000AF78607B681B6803F040031A
:10144800402B01D1012300E0002318460C37BD468C
:1014580080BC704780B483B000AF786039603B6867
:101468009BB21A467B681A6100BF0C37BD4680BC28
:10147800704780B584B000AF786039600123FB7392
:101488007868FFF7D5FF0346002B3BD17B681B68C4
:1014980023F47F4323F0BF033A6811683A6852681F
:1014A80011433A68D26811433A68126911433A689D
:1014B800526911433A68926911433A68D2691143F3
:1014C8003A68126A0A431A437B681A607B685B6849
:1014D80023F4706323F004033A6891683A68526908
:1014E800120C0A431A437B685A603B681B6AB3F5BF
:1014F800005F05D13B685B6A19467868FFF7AAFF69
:101508000023FB737B68DB6923F400627B68DA6184
:10151800FB7B18461037BD4680BD80B483B000AF52
:1015280078607B6800221A607B6800225A607B68BA
:101538004FF4E0629A607B680022DA607B680022E0
:101548001A617B6800225A617B6800229A617B6875
:101558000022DA617B6800221A627B6807225A62DD
:1015680000BF0C37BD4680BC704780B483B000AF65
:10157800786039607B683A689A6200BF0C37BD466C
:1015880080BC704780B483B000AF786039607B68F6
:101598003A68DA6200BF0C37BD4680BC704780B439
:1015A80083B000AF786039607B683A681A6300BF1F
:1015B8000C37BD4680BC704780B483B000AF7860FC
:1015C8007B685B6943F001027B685A6100BF0C3796
:1015D800BD4680BC704780B483B000AF78607B683C
:1015E80000221A807B6800225A607B684FF0FF3225
:1015F8009A607B680022DA607B6800221A7400BF58
:101608000C37BD4680BC704780B584B000AF7860A9
:1016180039607B681B68FB607B68394A93420FD04E
:101628007B68B3F1804F0BD07B68364A934207D072
:101638007B68354A934203D07B68344A934206D18B
:10164800FB6823F070023B685B681343FB607B68B0
:101658002B4A93421BD07B68B3F1804F17D07B682D
:10166800284A934213D07B68274A93420FD07B685D
:10167800264A93420BD07B68254A934207D07B6861
:10168800244A934203D07B68234A934206D1FB68DD
:1016980023F440723B68DB681343FB607B68FA689D
:1016A8001A603B689B6819467868FFF76BFF3B68D0
:1016B8001B8819467868FFF758FF7B68104A9342E1
:1016C8000FD07B68114A93420BD07B68104A934233
:1016D80007D07B680F4A934203D07B680E4A934237
:1016E80005D13B681B7C19467868FFF758FF786876
:1016F800FFF762FF002318461037BD4680BD00BFC4
:10170800002C014000040040000800400034014063
:1017180000400140004401400048014070B50D4DB3
:101728000D4C641BA4100026A64209D10B4D0C4C8D
:1017380000F06CFC641BA4100026A64205D170BD05
:1017480055F8043B98470136EEE755F8043B9847AF
:101758000136F2E72C2000082C2000082C20000875
:1017680030200008466F6E745F377831302C207255
:101778006564206F6E20626C61636B00466F6E74E7
:101788005F377831302C20726564206F6E20626C70
:1017980061636B2C206C6F72656D20697073756D59
:1017A80020646F6C6F722073697420616D657400BA
:1017B800466F6E745F31317831382C2067726565F9
:1017C8006E2C206C6F72656D20697073756D0000EA
:1017D800466F6E745F31367832360000424C4143B2
:1017E8004B000000424C55450000000052454400A3
:1017F800475245454E0000004359414E0000000045
:101808004D4147454E54410059454C4C4F570000F7
:10181800574849544500000000000000000000003F
:101828000000000000000000000000000010001090
:101838000010001000100010000000100000000050
:101848000028002800280000000000000000000018
:101858000000000000240024007C00240048007CD4
:1018680000480048000000000038005400500038CC
:1018780000140054005400380010000000200054E8
:101888000058003000280054001400080000000030
:1018980000100028002800100034004800480034D8
:1018A8000000000000100010001000000000000000
:1018B80000000000000000000008001000200020C8
:1018C8000020002000200020001000080020001048
:1018D80000080008000800080008000800100020A0
:1018E8000010003800100028000000000000000070
:1018F800000000000000000000100010007C001034
:1019080000100000000000000000000000000000BF
:10191800000000000000001000100010000000008F
:101928000000000000000038000000000000000077
:10193800000000000000000000000000000000108F
:10194800000000000008000800100010001000103F
:10195800002000200000000000380044004400542B
:10196800004400440044003800000000001000302B
:1019780000500010001000100010001000000000BF
:101988000038004400440004000800100020007CD7
:10199800000000000038004400040018000400049F
:1019A8000044003800000000000800180028002843
:1019B8000048007C0008000800000000007C00408F
:1019C80000400078000400040044003800000000D3
:1019D80000380044004000780044004400440038C7
:1019E80000000000007C0004000800100010002027
:1019F80000200020000000000038004400440038A7
:101A0800004400440044003800000000003800444E
:101A180000440044003C000400440038000000007A
:101A2800000000000010000000000000000000108E
:101A3800000000000000000000000010000000008E
:101A4800000000100010001000000000000C003022
:101A580000400030000C0000000000000000000002
:101A68000000007C0000007C000000000000000076
:101A7800000000000060001800040018006000006A
:101A880000000000003800440004000800100010A6
:101A9800000000100000000000380044004C005412
:101AA800005C0040004000380000000000100028E2
:101AB800002800280028007C0044004400000000A2
:101AC8000078004400440078004400440044007852
:101AD8000000000000380044004000400040004082
:101AE8000044003800000000007000480044004432
:101AF800004400440048007000000000007C0040E2
:101B08000040007C004000400040007C00000000D5
:101B1800007C004000400078004000400040004049
:101B2800000000000038004400400040005C004411
:101B38000044003800000000004400440044007CD9
:101B48000044004400440044000000000038001035
:101B580000100010001000100010003800000000F5
:101B680000040004000400040004000400440038D9
:101B78000000000000440048005000600050004889
:101B880000480044000000000040004000400040C1
:101B9800004000400040007C000000000044006C51
:101BA800006C00540044004400440044000000005D
:101BB80000440064006400540054004C004C00448D
:101BC8000000000000380044004400440044004481
:101BD800004400380000000000780044004400443D
:101BE8000078004000400040000000000038004439
:101BF800004400440044004400540038000400003D
:101C0800007800440044004400780048004800443C
:101C180000000000003800440040003000080004C4
:101C28000044003800000000007C00100010001084
:101C380000100010001000100000000000440044D4
:101C48000044004400440044004400380000000000
:101C58000044004400440028002800280010001018
:101C68000000000000440044005400540054006C7C
:101C78000028002800000000004400280028001068
:101C88000010002800280044000000000044004420
:101C980000280028001000100010001000000000AC
:101CA800007C000400080010001000200040007CA8
:101CB80000000000001800100010001000100010B4
:101CC8000010001000100018002000200010001064
:101CD800001000100008000800000000003000108C
:101CE800001000100010001000100010001000304C
:101CF8000010002800280044000000000000000038
:101D080000000000000000000000000000000000CB
:101D180000000000000000FE00200010000000008D
:101D280000000000000000000000000000000000AB
:101D380000380044003C0044004C0034000000001F
:101D4800004000400058006400440044006400580B
:101D5800000000000000000000380044004000407F
:101D68000044003800000000000400040034004C67
:101D780000440044004C0034000000000000000053
:101D880000380044007C0040004400380000000097
:101D9800000C0010007C0010001000100010001053
:101DA80000000000000000000034004C0044004423
:101DB800004C0034000400780040004000580064E3
:101DC80000440044004400440000000000100000EB
:101DD800007000100010001000100010000000003B
:101DE800001000000070001000100010001000101B
:101DF800001000E000400040004800500060005023
:101E0800004800440000000000700010001000109E
:101E1800001000100010001000000000000000007A
:101E2800007800540054005400540054000000008E
:101E380000000000005800640044004400440044CE
:101E48000000000000000000003800440044004486
:101E58000044003800000000000000000058006442
:101E680000440044006400580040004000000000A6
:101E78000034004C00440044004C003400040004CA
:101E8800000000000058006400400040004000408E
:101E98000000000000000000003800440030000886
:101EA80000440038000000000020002000780020D6
:101EB80000200020002000180000000000000000A2
:101EC8000044004400440044004C0034000000007A
:101ED80000000000004400440028002800280010EA
:101EE8000000000000000000005400540054006C82
:101EF800002800280000000000000000004400281E
:101F0800001000100028004400000000000000003D
:101F18000044004400280028001000100010006051
:101F280000000000007C0008001000200040007C39
:101F38000000000000180010001000100020002011
:101F48000010001000100018001000100010001001
:101F580000100010001000100010001000300010D9
:101F680000100010000800080010001000100030D9
:101F78000000000000000074004C00000000000099
:101F8800000000000F0180961180FFB103012C2D85
:101F9800B203012C2DB306012C2D012C2DB4010701
:101FA800C003A20284C101C5C2020A00C3028A2A70
:101FB800C4028AEEC5010E20003601603A01050010
:101FC800022A040000007F2B040000007F000000AC
:101FD80004E010021C07123732292D29252B39005D
:101FE800010310E110031D07062E2C292D2E2E3774
:101FF8003F0000021013800A2980640000000000DE
:10200800000000000102030406070809F8B500BF34
:10201800F8BC08BC9E467047F8B500BFF8BC08BCC1
:042028009E46704719
:04202C00FD010008AA
:04203000D9010008CA
:10203400070A000020180008408020088000800063
:08204400020300000024F40077
:04000005080010DD02
:00000001FF
