:020000040800F2
:100000000080002025090008510700085707000854
:100010005D0700086307000869070008000000008A
:100020000000000000000000000000006F07000852
:1000300075070008000000007B0700088107000822
:10004000870700088D070008930700089907000834
:100050009F070008A5070008AB070008B1070008C4
:10006000B7070008BD070008C3070008C907000854
:10007000CF070008D5070008DB070008E1070008E4
:10008000E707000800000000ED070008F30700087C
:10009000F9070008FF070008050800080B0800081A
:1000A00011080008170800081D08000823080008A8
:1000B000290800082F08000819060008350800085C
:1000C0003B08000841080008470800084D080008E0
:1000D00053080008590800085F0800086508000870
:1000E0006B08000871080008770800087D08000800
:1000F00083080008890800088F0800080000000035
:100100000000000095080008000000009B0800089F
:10011000A108000800000000A7080008AD080008BA
:10012000B3080008B9080008BF080008C50800089F
:10013000CB0800080000000000000000D108000803
:10014000D7080008DD0800080000000000000000DB
:10015000000000000000000000000000000000009F
:10016000000000000000000000000000E30800089C
:10017000E908000800000000000000000000000086
:1001800000000000EF080008000000000000000070
:10019000000000000000000000000000000000005F
:1001A0000000000000000000F5080008FB0800083F
:1001B00001090008070900080D09000800000000F7
:1001C000000000001309000800000000000000000B
:0801D000190900081F090008CD
:1001D80010B5054C237833B9044B13B10448AFF379
:1001E80000800123237010BD0400002000000000DF
:1001F8002810000808B5034B1BB103490348AFF3A7
:10020800008008BD00000000080000202810000839
:1002180080B500AF314B1B68304A43F480731360DC
:100228002F4B1B682E4A43F48033136000BF2C4BBE
:100238001B6803F40033002BF9D0284B1B68274AAE
:1002480043F008031360264B9B68254A23F4125396
:100258009360234B0022DA60214BDB68204A23F0AD
:10026800C063D3601E4BDB681D4A43F08073D360C4
:100278001B4BDB681A4A23F0F003D360184BDB688A
:10028800174A43F01003D360154BDB68144A43F454
:10029800AA43D360124BDB68114A43F00303D360CF
:1002A8000F4B1B680E4A43F08073136000BF0C4B62
:1002B8001B6803F00073002BF9D0094B9B68084AB0
:1002C80043F00303936000BF054B9B6803F00C03E6
:1002D800002BF9D000F0CEF900BF80BD002002400D
:1002E8000010024080B483B000AF0346FB7197F959
:1002F8000730002B0BDBFB7903F01F02064997F947
:1003080007305B09012000FA02F241F8232000BF00
:100318000C37BD4680BC704700E100E080B485B072
:1003280000AF7860084BDA6C07497B681343CB64ED
:10033800054BDA6C7B681340FB60FB6800BF143721
:10034800BD4680BC704700BF0010024080B485B035
:1003580000AF7860084B9A6D07497B6813438B653B
:10036800054B9A6D7B681340FB60FB6800BF143730
:10037800BD4680BC704700BF0010024080B485B005
:1003880000AF7860084B1A6E07497B6813430B6609
:10039800054B1A6E7B681340FB60FB6800BF14377F
:1003A800BD4680BC704700BF0010024080B483B0D7
:1003B80000AF786039607B681B6823F004023B68F3
:1003C8001A437B681A6000BF0C37BD4680BC704773
:1003D80080B483B000AF78607B68DB6843F00102CB
:1003E8007B68DA6000BF0C37BD4680BC704780B4BC
:1003F80083B000AF78607B681B6843F040027B687D
:100408001A6000BF0C37BD4680BC704780B485B009
:1004180000AF78600B46FB707B680C33FB60FB68B1
:10042800FA781A7000BF1437BD4680BC70470000C8
:1004380080B582B000AFFFF7EBFE00F0FFF800F0E8
:1004480083F800F09DF800F037F8084A3B4692E838
:10045800030083E803004FF4FA7000F0B5F83B4658
:100468000721184600F004F8F5E700BFF80F000868
:1004780080B582B000AF7860396012E07B681B7885
:1004880019460C48FFF7C2FF00BF0A4B9B6803F0F0
:100498000203002BF9D07B6801337B603B68013B8A
:1004A8003B603B68002BE9D100BF00BF0837BD4661
:1004B80080BD00BF0030014080B590B000AF4FF460
:1004C8008050FFF75BFF0120FFF728FF07F12803A3
:1004D800184600F0B5FB0523FB630223FB622023CB
:1004E800BB6203233B6307F1280319464FF0904092
:1004F80000F037FB8023BB6207F1280319464FF051
:10050800904000F02EFB3B46184600F02AFC2823BA
:10051800BB614FF482737B604FF440433B604FF400
:1005280000737B614FF4E063BB603B4619460548A6
:1005380000F0C3FB0348FFF75AFF00BF4037BD4632
:1005480080BD00BF0030014080B586B000AF0120FB
:10055800FFF7E4FE3B46184600F072FB01237B6080
:100568000023FB6002233B600323BB603B46194624
:100578004FF0904000F0F5FA00BF1837BD4680BD37
:1005880080B586B000AF0420FFF7E0FE3B1D18469B
:1005980000F045FC4FF47A73FB60AA23BB8004216A
:1005A8000848FFF703FF0748FFF712FF3B1D1946EE
:1005B800044800F04DFC1E20FFF794FE00BF1837DA
:1005C800BD4680BD0008004080B483B000AF7860AD
:1005D8000D4B1B680C4A43F0010313600B4B0022C0
:1005E8001A8000BF094B1B881A467B689342F9DCC6
:1005F800054B1B68044A23F00103136000BF0C3746
:10060800BD4680BC704700BF0008004020000020A5
:1006180080B400AF074B1B69064A23F0010313613E
:10062800054B1B8801339AB2034B1A8000BFBD46A5
:1006380080BC7047000800402000002080B588B0CA
:1006480000AF4FF40030FFF781FE3B46184600F03C
:1006580089FC00BF2037BD4680BD000080B400AFD4
:10066800034B4FF000629A6000BFBD4680BC7047E4
:1006780000ED00E080B487B000AF2E4B9B6803F01C
:100688000C030C2B0ED00C2B3ED8042B02D0082BBD
:1006980004D039E0284B294A1A6036E0264B284A0C
:1006A8001A6032E0234BDB6803F003033B61214B04
:1006B800DB681B0903F00F030133FB603B69022B66
:1006C80005D11E4AFB68B2FBF3F37B6104E01C4AC8
:1006D800FB68B2FBF3F37B61164BDB681B0A03F084
:1006E8007F027B6902FB03F37B61124BDB685B0EC5
:1006F80003F0030301335B00BB607A69BB68B2FB9C
:10070800F3F30D4A136000E000BF0A4B9B681B0916
:1007180003F00F030B4AD35C7B60074B1A687B68B6
:1007280022FA03F3044A136000BF1C37BD4680BC9D
:10073800704700BF00100240000000200024F400B1
:1007480000127A0000100008FFBE704700BFFFBE0D
:10075800704700BFFFBE704700BFFFBE704700BFB5
:10076800FFBE704700BFFFBE704700BFFFBE7047A7
:1007780000BFFFBE704700BFFFBE704700BFFFBE8F
:10078800704700BFFFBE704700BFFFBE704700BF85
:10079800FFBE704700BFFFBE704700BFFFBE704777
:1007A80000BFFFBE704700BFFFBE704700BFFFBE5F
:1007B800704700BFFFBE704700BFFFBE704700BF55
:1007C800FFBE704700BFFFBE704700BFFFBE704747
:1007D80000BFFFBE704700BFFFBE704700BFFFBE2F
:1007E800704700BFFFBE704700BFFFBE704700BF25
:1007F800FFBE704700BFFFBE704700BFFFBE704717
:1008080000BFFFBE704700BFFFBE704700BFFFBEFE
:10081800704700BFFFBE704700BFFFBE704700BFF4
:10082800FFBE704700BFFFBE704700BFFFBE7047E6
:1008380000BFFFBE704700BFFFBE704700BFFFBECE
:10084800704700BFFFBE704700BFFFBE704700BFC4
:10085800FFBE704700BFFFBE704700BFFFBE7047B6
:1008680000BFFFBE704700BFFFBE704700BFFFBE9E
:10087800704700BFFFBE704700BFFFBE704700BF94
:10088800FFBE704700BFFFBE704700BFFFBE704786
:1008980000BFFFBE704700BFFFBE704700BFFFBE6E
:1008A800704700BFFFBE704700BFFFBE704700BF64
:1008B800FFBE704700BFFFBE704700BFFFBE704756
:1008C80000BFFFBE704700BFFFBE704700BFFFBE3E
:1008D800704700BFFFBE704700BFFFBE704700BF34
:1008E800FFBE704700BFFFBE704700BFFFBE704726
:1008F80000BFFFBE704700BFFFBE704700BFFFBE0E
:10090800704700BFFFBE704700BFFFBE704700BF03
:10091800FFBE704700BFFFBE704700BF0C4D0D4CB7
:1009280003E02B682360043504340B4B9C42F8D158
:100938000A4C02E0002323600434094B9C42F9D19D
:10094800FFF78CFE00F030FBFFF772FDFEE700BFFB
:1009580030100008000000200400002004000020DF
:100968002400002080B489B000AFF860B9607A60D4
:10097800FB681A68BB687B617B6993FAA3F33B61E8
:100988003B69B3FA83F3DBB25B00032101FA03F39B
:10099800DB431A40BB68FB61FB6993FAA3F3BB61B5
:1009A800BB69B3FA83F3DBB25B00796801FA03F33E
:1009B8001A43FB681A6000BF2437BD4680BC7047E5
:1009C80080B485B000AFF860B9607A60FB685A6897
:1009D800BB68DB431A40BB68796801FB03F31A4321
:1009E800FB685A6000BF1437BD4680BC704780B4AE
:1009F80089B000AFF860B9607A60FB689A68BB6834
:100A08007B617B6993FAA3F33B613B69B3FA83F398
:100A1800DBB25B00032101FA03F3DB431A40BB6836
:100A2800FB61FB6993FAA3F3BB61BB69B3FA83F378
:100A3800DBB25B00796801FA03F31A43FB689A603A
:100A480000BF2437BD4680BC704780B489B000AF72
:100A5800F860B9607A60FB68DA68BB687B617B69BB
:100A680093FAA3F33B613B69B3FA83F3DBB25B0010
:100A7800032101FA03F3DB431A40BB68FB61FB69FE
:100A880093FAA3F3BB61BB69B3FA83F3DBB25B00F0
:100A9800796801FA03F31A43FB68DA6000BF243768
:100AA800BD4680BC704780B489B000AFF860B960BB
:100AB8007A60FB681A6ABB687B617B6993FAA3F367
:100AC8003B613B69B3FA83F3DBB29B000F2101FA68
:100AD80003F3DB431A40BB68FB61FB6993FAA3F39A
:100AE800BB61BB69B3FA83F3DBB29B00796801FA97
:100AF80003F31A43FB681A6200BF2437BD4680BC63
:100B0800704780B489B000AFF860B9607A60FB685C
:100B18005A6ABB681B0A7B617B6993FAA3F33B6142
:100B28003B69B3FA83F3DBB29B000F2101FA03F3AD
:100B3800DB431A40BB681B0AFB61FB6993FAA3F30A
:100B4800BB61BB69B3FA83F3DBB29B00796801FA36
:100B580003F31A43FB685A6200BF2437BD4680BCC2
:100B6800704780B586B000AF786039603B681B6815
:100B7800FB60FB6893FAA3F3BB60BB68B3FA83F32B
:100B8800DBB27B6140E03B681A6801217B6901FAAE
:100B980003F313403B613B69002B32D03B685B6831
:100BA8001A4639697868FFF7DDFE3B685B68012BF8
:100BB80003D03B685B68022B06D13B689B681A46EA
:100BC80039697868FFF713FF3B681B691A4639696A
:100BD8007868FFF73AFF3B685B68022B11D13B69E5
:100BE800FF2B07D83B685B691A4639697868FFF7B5
:100BF8005AFF06E03B685B691A4639697868FFF76F
:100C080080FF7B6901337B613B681A687B6922FA44
:100C180003F3002BB7D13B685B68012B03D03B681B
:100C28005B68022B07D13B6819683B68DB681A468A
:100C38007868FFF7C5FE002318461837BD4680BD03
:100C480080B483B000AF78607B684FF6FF721A609B
:100C58007B6803225A607B6800229A607B680022C6
:100C6800DA607B6800221A617B6800225A6100BF43
:100C78000C37BD4680BC704780B483B000AF786045
:100C88007B681B6803F04003402B01D1012300E07F
:100C9800002318460C37BD4680BC704780B483B02B
:100CA80000AF786039603B689BB21A467B681A616E
:100CB80000BF0C37BD4680BC704780B584B000AF1C
:100CC800786039600123FB737868FFF7D5FF034626
:100CD800002B3BD17B681B6823F47F4323F0BF03C1
:100CE8003A6811683A68526811433A68D268114301
:100CF8003A68126911433A68526911433A6892692D
:100D080011433A68D26911433A68126A0A431A438E
:100D18007B681A607B685B6823F4706323F00403C4
:100D28003A6891683A685269120C0A431A437B6818
:100D38005A603B681B6AB3F5005F05D13B685B6A84
:100D480019467868FFF7AAFF0023FB737B68DB6905
:100D580023F400627B68DA61FB7B18461037BD46D6
:100D680080BD80B483B000AF78607B6800221A60D1
:100D78007B6800225A607B684FF4E0629A607B6867
:100D88000022DA607B6800221A617B6800225A61BF
:100D98007B6800229A617B680022DA617B68002206
:100DA8001A627B6807225A6200BF0C37BD4680BCB6
:100DB800704780B483B000AF786039607B683A6868
:100DC8009A6200BF0C37BD4680BC704780B483B0C0
:100DD80000AF786039607B683A68DA6200BF0C3728
:100DE800BD4680BC704780B483B000AF786039607E
:100DF8007B683A681A6300BF0C37BD4680BC7047F1
:100E080080B483B000AF78607B685B6943F001020F
:100E18007B685A6100BF0C37BD4680BC704780B400
:100E280083B000AF78607B6800221A807B6800225C
:100E38005A607B684FF0FF329A607B680022DA6064
:100E48007B6800221A7400BF0C37BD4680BC70470F
:100E580080B584B000AF786039607B681B68FB6040
:100E68007B68394A93420FD07B68B3F1804F0BD02F
:100E78007B68364A934207D07B68354A934203D051
:100E88007B68344A934206D1FB6823F070023B68C2
:100E98005B681343FB607B682B4A93421BD07B68DB
:100EA800B3F1804F17D07B68284A934213D07B68F0
:100EB800274A93420FD07B68264A93420BD07B681F
:100EC800254A934207D07B68244A934203D07B6823
:100ED800234A934206D1FB6823F440723B68DB68DF
:100EE8001343FB607B68FA681A603B689B68194685
:100EF8007868FFF76BFF3B681B8819467868FFF72F
:100F080058FF7B68104A93420FD07B68114A93427E
:100F18000BD07B68104A934207D07B680F4A9342F4
:100F280003D07B680E4A934205D13B681B7C194667
:100F38007868FFF758FF7868FFF762FF00231846C4
:100F48001037BD4680BD00BF002C014000040040A2
:100F580000080040003401400040014000440140C6
:100F68000048014080B483B000AF78607B680022FD
:100F78001A607B684FF416525A607B6800229A60A8
:100F88007B680022DA607B6800221A617B680C2289
:100F98005A617B6800229A617B680022DA6100BF8F
:100FA8000C37BD4680BC704770B50D4D0D4C641BA9
:100FB800A4100026A64209D10B4D0C4C00F024F8D1
:100FC800641BA4100026A64205D170BD55F8043B49
:100FD80098470136EEE755F8043B98470136F2E7A3
:100FE8002810000828100008281000082C100008F5
:100FF80053544D3332473400000000000000000015
:101008000102030406070809F8B500BFF8BC08BCCC
:101018009E467047F8B500BFF8BC08BC9E467047AE
:04102800FD010008BE
:04102C00D9010008DE
:041030000024F400A4
:0400000508000925C1
:00000001FF
