:020000040800F2
:1000000000800020C9110008F90F0008FF0F000848
:10001000051000080B100008111000080000000077
:1000200000000000000000000000000017100008A1
:100030001D1000080000000023100008291000080F
:100040002F100008351000083B1000084110000870
:10005000471000084D100008531000085910000800
:100060005F100008651000086B1000087110000890
:10007000771000087D100008831000088910000820
:100080008F10000800000000951000089B10000869
:10009000A1100008A7100008AD100008B310000858
:1000A000B9100008BF100008C5100008CB100008E8
:1000B000550C0008D1100008790C0008D710000872
:1000C000DD100008E3100008E9100008EF10000838
:1000D000F5100008FB1000080111000807110008C6
:1000E0000D11000813110008191100081F11000854
:1000F000251100082B110008311100080000000034
:100100000000000037110008000000003D11000849
:100110004311000800000000491100084F110008B9
:10012000551100085B1100086111000867110008F3
:100130006D110008000000000000000073110008AD
:10014000791100087F110008000000000000000085
:10015000000000000000000000000000000000009F
:1001600000000000000000000000000085110008F1
:100170008B110008000000000000000000000000DB
:1001800000000000911100080000000000000000C5
:10019000000000000000000000000000000000005F
:1001A0000000000000000000971100089D110008E9
:1001B000A3110008A9110008AF11000800000000F9
:1001C00000000000B5110008000000000000000061
:0801D000BB110008C111000879
:1001D80010B5054C237833B9044B13B10448AFF379
:1001E80000800123237010BD1800002000000000CB
:1001F800402E000808B5034B1BB103490348AFF371
:10020800008008BD000000001C000020402E0008EF
:1002180080B500AF314B1B68304A43F480731360DC
:100228002F4B1B682E4A43F48033136000BF2C4BBE
:100238001B6803F40033002BF9D0284B1B68274AAE
:1002480043F008031360264B9B68254A23F4125396
:100258009360234B0022DA60214BDB68204A23F0AD
:10026800C063D3601E4BDB681D4A43F08073D360C4
:100278001B4BDB681A4A23F0F003D360184BDB688A
:10028800174A43F01003D360154BDB68144A43F454
:10029800AA43D360124BDB68114A43F00303D360CF
:1002A8000F4B1B680E4A43F08073136000BF0C4B62
:1002B8001B6803F00073002BF9D0094B9B68084AB0
:1002C80043F00303936000BF054B9B6803F00C03E6
:1002D800002BF9D000F022FE00BF80BD00200240B4
:1002E8000010024080B400AF034B80229A6200BF26
:1002F800BD4680BC704700BF0004004880B400AF12
:10030800034B80229A6100BFBD4680BC704700BF86
:100318000004004880B500AF054B20229A620520F2
:1003280000F05EFD024B20229A6100BF80BD00BF35
:100338000004004880B582B000AF0346FB71064B4D
:1003480040229A62FB1D0121184600F0C9FC00BF3B
:100358000837BD4680BD00BF0004004880B582B0A4
:1003680000AF78603960054B40229A613968786837
:1003780000F0B6FC00BF0837BD4680BD0004004849
:1003880080B584B000AF78607B685A1C7A601B78AF
:10039800FB7334E07B685A1C7A601B78FB72FB7A2B
:1003A8001846FFF7C7FF7B685A1C7A601B78BB7238
:1003B800BB7A9BB203F08003BB81BB7A03F07F0357
:1003C800BB72BB7A002B08D0BB7A19467868FFF756
:1003D800C5FFBB7A7A6813447B60BB89002B0ED0BB
:1003E8007B685A1C7A601B78BB81BB89FF2B02D1C2
:1003F8004FF4FA73BB81BB89184600F0F1FCFB7B14
:100408005A1EFA73002BC5D100BF00BF1037BD4676
:1004180080BD90B585B000AF0446084611461A461F
:100428002346FB710346BB710B467B7113463B7138
:100438002A20FFF77FFF00233B73FB790233DBB2EF
:100448007B730023BB737B790233DBB2FB7307F149
:100458000C0304211846FFF781FF2B20FFF76AFFE2
:10046800BB790133DBB27B733B790133DBB2FB73BE
:1004780007F10C0304211846FFF770FF2C20FFF743
:1004880059FF00BF1437BD4690BD000080B500AFCE
:10049800FFF728FFFFF73EFF0648FFF771FF064802
:1004A800FFF76EFF0548FFF76BFFFFF727FF00BF59
:1004B80080BD00BFA02D0008DC2D0008EC2D000831
:1004C80082B090B589B000AF7B630346FB800B46D2
:1004D800BB801346FB70FFF705FFFB88D8B2BB88CB
:1004E800D9B2FB88DAB297F834301344DBB2013B57
:1004F800DCB2BB88DAB297F835301344DBB2013B83
:10050800DBB22246FFF785FF0023FB6143E0BA6BAD
:10051800FB78203B97F8351001FB03F31946FB697C
:100528000B445B0013441B887B610023BB6129E0FB
:100538007A69BB6902FA03F303F40043002B0ED077
:10054800BB8F1B0A9BB2DBB23B74BB8FDBB27B74E5
:1005580007F1100302211846FFF700FF0FE0B7F874
:1005680040301B0A9BB2DBB23B73B7F84030DBB2BA
:100578007B7307F10C0302211846FFF7EFFEBB69F6
:100588000133BB6197F834301A46BB699342CFD325
:10059800FB690133FB6197F835301A46FB699342D2
:1005A800B5D3FFF7ABFE00BF2437BD46BDE890408A
:1005B80002B0704782B080B586B004AF3A607B6104
:1005C8000346FB800B46BB80FFF78CFE2DE0FB88C3
:1005D8003A7D13447F2B13DD0023FB807B7D9AB289
:1005E800BB881344BB80BB887A7D13449F2B21DCD6
:1005F8003B681B78202B03D13B6801333B6014E038
:100608003B681A78B988F8883B8C0293BB8B0193B6
:10061800BB6900937B69FFF753FF3B7D9AB2FB8868
:100628001344FB803B6801333B603B681B78002B1D
:10063800CDD100E000BFFFF761FE00BF0837BD461F
:10064800BDE8804002B0704790B585B000AF044661
:10065800084611461A462346FB800346BB800B46D4
:100668007B8013463B80FB887F2B53D8BB889F2B0E
:1006780050D8FA887B881344802B03DDFB88C3F1AC
:1006880080037B80BA883B881344A02B03DDBB889A
:10069800C3F1A0033B80FFF725FEFB88D8B2BB88D7
:1006A800D9B2FB88DAB27B88DBB21344DBB2013BF8
:1006B800DCB2BB88DAB23B88DBB21344DBB2013B65
:1006C800DBB22246FFF7A5FE3B8C1B0A9BB2DBB2CE
:1006D8003B733B8CDBB27B73104B40229A613B88A7
:1006E800BB8011E07B88FB8008E007F10C03022146
:1006F800184600F0F5FAFB88013BFB80FB88002BCD
:10070800F3D1BB88013BBB80BB88002BEAD1FFF744
:10071800F5FD00E000BF1437BD4690BD0004004859
:1007280080B584B002AF0346FB80FB880093A0230A
:10073800802200210020FFF787FF00BF0837BD4651
:1007480080BD000080B584B000AF0346FB71FB7923
:1007580003F00303DAB2474B1A70474B80229A62C0
:100768003620FFF7E7FD434B1B78032B7AD801A20D
:1007780052F823F08D070008C9070008050800088B
:10078800310800083D4B1A783C4B5B781343DAB2CA
:100798003A4BDB781343DBB2FB7307F10F030121FC
:1007A8001846FFF7DBFD364B80221A80354BA02216
:1007B8001A80354B02221A70344B01221A7051E00C
:1007C8002E4B5A782D4B9B781343DAB22B4BDB78A0
:1007D8001343DBB2BB7307F10E0301211846FFF781
:1007E800BDFD274BA0221A80264B80221A80264B5B
:1007F80001221A70254B02221A7033E01F4BDB7856
:100808007B7307F10D0301211846FFF7A7FD1C4B69
:1008180080221A801B4BA0221A801B4B02221A70BE
:100828001A4B01221A701DE0144B1A78134B9B784F
:100838001343DAB2114BDB781343DBB23B7307F196
:100848000C0301211846FFF789FD0D4BA0221A80E1
:100858000C4B80221A800C4B01221A700B4B02227F
:100868001A7000BF044B80229A6100BF1037BD4642
:1008780080BD00BF340000200004004808000020AC
:100888000E0000200C0000201000002011000020A5
:1008980080B588B000AF0346FB710B46BB711346A9
:1008A8007B713B4BB3F90030DAB2FB79D31ADAB279
:1008B800BB79D31AFB770023BB7700233B74FB7902
:1008C8007B740023BB74FB7FFB7400233B75BB79EF
:1008D8007B753320FFF72EFD07F11003062118461C
:1008E800FFF73CFD3620FFF725FD02237B777B7958
:1008F800002B24D07B7F002B08D1D823FB7307F172
:100908000F03BB610121B869FFF728FD7B7F012B2D
:1009180008D1D023BB7307F10E03BB610121B8696D
:10092800FFF71CFD7B7F022B2DD118237B7307F16A
:100938000D03BB610121B869FFF710FD23E07B7F40
:10094800002B08D1C8233B7307F10C03BB610121BD
:10095800B869FFF703FD7B7F012B08D1C023FB7229
:1009680007F10B03BB610121B869FFF7F7FC7B7F37
:10097800022B08D10823BB7207F10A03BB610121CE
:10098800B869FFF7EBFC00BF2037BD4680BD00BF4C
:100998000C00002080B483B000AF0346FB7197F9C8
:1009A8000730002B0BDBFB7903F01F02064997F990
:1009B80007305B09012000FA02F241F8232000BF4A
:1009C8000C37BD4680BC704700E100E080B485B0BC
:1009D80000AF7860084BDA6C07497B681343CB6437
:1009E800054BDA6C7B681340FB60FB6800BF14376B
:1009F800BD4680BC704700BF0010024080B485B07F
:100A080000AF7860084B9A6D07497B6813438B6584
:100A1800054B9A6D7B681340FB60FB6800BF143779
:100A2800BD4680BC704700BF0010024080B485B04E
:100A380000AF7860084B1A6E07497B6813430B6652
:100A4800054B1A6E7B681340FB60FB6800BF1437C8
:100A5800BD4680BC704700BF0010024080B483B020
:100A680000AF786039607B683A689A6200BF0C37DB
:100A7800BD4680BC704780B483B000AF78603960F1
:100A88007B685A693B685A407B685A6100BF0C37DB
:100A9800BD4680BC704780B483B000AF78607B6887
:100AA8001B6843F001027B681A6000BF0C37BD4623
:100AB80080BC704780B483B000AF786039607B68D1
:100AC8001B6823F004023B681A437B681A6000BF66
:100AD8000C37BD4680BC704780B483B000AF7860E7
:100AE80039607B683A685A6300BF0C37BD4680BCE2
:100AF800704780B483B000AF78607B68DB6843F0F0
:100B080001027B68DA6000BF0C37BD4680BC7047C5
:100B180080B483B000AF78607B68DB6843F0020282
:100B28007B68DA6000BF0C37BD4680BC704780B474
:100B380083B000AF78607B685B6943F001027B6833
:100B48005A6100BF0C37BD4680BC704780B483B083
:100B580000AF78607B681B6843F040027B681A60CE
:100B680000BF0C37BD4680BC7047000080B588B018
:100B780004AFFFF74DFB00F09DF900F053F900F0CA
:100B88008DF80023FB600AE001214FF09040FFF749
:100B980072FF642000F024F9FB680133FB60FB68F6
:100BA800092BF1DDFFF772FC0420FFF7CBFD0020D5
:100BB800FFF7B6FD224B4FF6FF721A80204B1A88BA
:100BC800204B0021029101925A6800921B681E4A2C
:100BD80000210020FFF7EEFC0023FB700A23BB7006
:100BE800012280210020FFF753FE00233B8000F004
:100BF800A3F80023BB600BE0BB6819464FF08040A8
:100C0800FFF76AFF0A2000F0EBF8BB680A33BB6005
:100C1800BB68B3F57A7FEFDB4FF47A737B600BE048
:100C28007B6819464FF08040FFF756FF0A2000F016
:100C3800D7F87B680A3B7B607B68002BF0DCD8E741
:100C48003600002000000020A01F000880B500AF7B
:100C58004FF080431B6903F00403002B04D04FF4CA
:100C680000510248FFF707FF00BF80BD0008004899
:100C780080B400AF074B1B69064A23F001031361D8
:100C8800054B1B680133044A136000BFBD4680BC96
:100C9800704700BF000800403800002080B586B0CB
:100CA80000AF0220FFF792FEE0210C48FFF7D6FEC6
:100CB8003B46184600F016FC01237B600023FB60CE
:100CC800E0233B600023BB603B461946034800F025
:100CD8009AFB00BF1837BD4680BD00BF000400481E
:100CE80080B485B000AF78603960114BFB600FE0CD
:100CF80000BF104B9B6803F00203002BF9D07B6800
:100D08005A1C7A601A78FB681A703B68013B3B6092
:100D18003B68002BECD100BF064B9B6803F08003B7
:100D2800002BF9D100BF00BF1437BD4680BC704707
:100D38000C3001400030014080B594B000AF012074
:100D4800FFF744FE0120FFF759FE07F13803184664
:100D580000F0C8FB0223FB630123FB6403233B640D
:100D68000123BB6307F1380319464FF0904000F0A8
:100D78004AFB07F12403184600F0F3FC4FF47A739A
:100D8800FB62AA23BB843B1D184600F08DFD4FF47F
:100D9800FA733B610023FB6160237B6000237B6166
:100DA8000123BB6007F1240319464FF0804000F08F
:100DB800F1FC3B1D1A4601214FF0804000F095FDE3
:100DC8001C20FFF7E7FD4FF08040FFF7A1FE4FF032
:100DD8008040FFF760FE00BF5037BD4680BD000071
:100DE80080B483B000AF78600C4B1B680B4A43F0AB
:100DF800010313600A4B00221A6000BF084B1B68EE
:100E08007A689A42FAD8054B1B68044A23F0010312
:100E1800136000BF0C37BD4680BC70470008004017
:100E28003800002080B590B000AF4FF48050FFF735
:100E3800FDFD0120FFF7CAFD07F12803184600F061
:100E480051FB0523FB630223FB622023BB620323C0
:100E58003B6307F1280319464FF0904000F0D3FA9E
:100E68008023BB6207F1280319464FF0904000F039
:100E7800CAFA3B46184600F0C6FB1023BB614FF484
:100E880082737B604FF440433B604FF400737B6197
:100E98004FF4E063BB603B461946054800F05FFB32
:100EA8000348FFF753FE00BF4037BD4680BD00BF73
:100EB8000030014080B586B000AF0420FFF79EFDEA
:100EC8003B1D184600F04DFC4FF47A73FB60AA23D3
:100ED800BB8004210A48FFF7EDFD0948FFF709FE2A
:100EE8000748FFF724FE3B1D1946054800F052FC51
:100EF8001E20FFF74FFD00BF1837BD4680BD00BF5D
:100F08000008004080B400AF034B4FF000629A60C5
:100F180000BFBD4680BC704700ED00E080B487B0DC
:100F280000AF2E4B9B6803F00C030C2B0ED00C2B40
:100F38003ED8042B02D0082B04D039E0284B294A8C
:100F48001A6036E0264B284A1A6032E0234BDB68E9
:100F580003F003033B61214BDB681B0903F00F031C
:100F68000133FB603B69022B05D11E4AFB68B2FBCB
:100F7800F3F37B6104E01C4AFB68B2FBF3F37B618B
:100F8800164BDB681B0A03F07F027B6902FB03F345
:100F98007B61124BDB685B0E03F0030301335B00DC
:100FA800BB607A69BB68B2FBF3F30D4A136000E0DB
:100FB80000BF0A4B9B681B0903F00F030B4AD35C65
:100FC8007B60074B1A687B6822FA03F3044A1360B4
:100FD80000BF1C37BD4680BC704700BF00100240F0
:100FE800140000200024F40000127A00182E0008D3
:100FF800FFBE704700BFFFBE704700BFFFBE70470F
:1010080000BFFFBE704700BFFFBE704700BFFFBEF6
:10101800704700BFFFBE704700BFFFBE704700BFEC
:10102800FFBE704700BFFFBE704700BFFFBE7047DE
:1010380000BFFFBE704700BFFFBE704700BFFFBEC6
:10104800704700BFFFBE704700BFFFBE704700BFBC
:10105800FFBE704700BFFFBE704700BFFFBE7047AE
:1010680000BFFFBE704700BFFFBE704700BFFFBE96
:10107800704700BFFFBE704700BFFFBE704700BF8C
:10108800FFBE704700BFFFBE704700BFFFBE70477E
:1010980000BFFFBE704700BFFFBE704700BFFFBE66
:1010A800704700BFFFBE704700BFFFBE704700BF5C
:1010B800FFBE704700BFFFBE704700BFFFBE70474E
:1010C80000BFFFBE704700BFFFBE704700BFFFBE36
:1010D800704700BFFFBE704700BFFFBE704700BF2C
:1010E800FFBE704700BFFFBE704700BFFFBE70471E
:1010F80000BFFFBE704700BFFFBE704700BFFFBE06
:10110800704700BFFFBE704700BFFFBE704700BFFB
:10111800FFBE704700BFFFBE704700BFFFBE7047ED
:1011280000BFFFBE704700BFFFBE704700BFFFBED5
:10113800704700BFFFBE704700BFFFBE704700BFCB
:10114800FFBE704700BFFFBE704700BFFFBE7047BD
:1011580000BFFFBE704700BFFFBE704700BFFFBEA5
:10116800704700BFFFBE704700BFFFBE704700BF9B
:10117800FFBE704700BFFFBE704700BFFFBE70478D
:1011880000BFFFBE704700BFFFBE704700BFFFBE75
:10119800704700BFFFBE704700BFFFBE704700BF6B
:1011A800FFBE704700BFFFBE704700BFFFBE70475D
:1011B80000BFFFBE704700BFFFBE704700BF000002
:1011C8000C4D0D4C03E02B682360043504340B4BA5
:1011D8009C42F8D10A4C02E0002323600434094BF6
:1011E8009C42F9D1FFF78EFE00F0B2FEFFF7BEFC7D
:1011F800FEE700BF482E000800000020180000206D
:10120800180000203C00002080B489B000AFF860CE
:10121800B9607A60FB681A68BB687B617B6993FA7E
:10122800A3F33B613B69B3FA83F3DBB25B000321B1
:1012380001FA03F3DB431A40BB68FB61FB6993FACD
:10124800A3F3BB61BB69B3FA83F3DBB25B007968D4
:1012580001FA03F31A43FB681A6000BF2437BD463E
:1012680080BC704780B485B000AFF860B9607A6020
:10127800FB685A68BB68DB431A40BB68796801FBA6
:1012880003F31A43FB685A6000BF1437BD4680BC9D
:10129800704780B489B000AFF860B9607A60FB68C5
:1012A8009A68BB687B617B6993FAA3F33B613B69EE
:1012B800B3FA83F3DBB25B00032101FA03F3DB43E8
:1012C8001A40BB68FB61FB6993FAA3F3BB61BB6976
:1012D800B3FA83F3DBB25B00796801FA03F31A43CC
:1012E800FB689A6000BF2437BD4680BC704780B455
:1012F80089B000AFF860B9607A60FB68DA68BB68EB
:101308007B617B6993FAA3F33B613B69B3FA83F38F
:10131800DBB25B00032101FA03F3DB431A40BB682D
:10132800FB61FB6993FAA3F3BB61BB69B3FA83F36F
:10133800DBB25B00796801FA03F31A43FB68DA60F1
:1013480000BF2437BD4680BC704780B489B000AF69
:10135800F860B9607A60FB681A6ABB687B617B6970
:1013680093FAA3F33B613B69B3FA83F3DBB29B00C7
:101378000F2101FA03F3DB431A40BB68FB61FB69E9
:1013880093FAA3F3BB61BB69B3FA83F3DBB29B00A7
:10139800796801FA03F31A43FB681A6200BF24371D
:1013A800BD4680BC704780B489B000AFF860B960B2
:1013B8007A60FB685A6ABB681B0A7B617B6993FA8F
:1013C800A3F33B613B69B3FA83F3DBB29B000F21C4
:1013D80001FA03F3DB431A40BB681B0AFB61FB6994
:1013E80093FAA3F3BB61BB69B3FA83F3DBB29B0047
:1013F800796801FA03F31A43FB685A6200BF24377D
:10140800BD4680BC704780B586B000AF7860396053
:101418003B681B68FB60FB6893FAA3F3BB60BB687F
:10142800B3FA83F3DBB27B6140E03B681A680121C1
:101438007B6901FA03F313403B613B69002B32D00F
:101448003B685B681A4639697868FFF7DDFE3B68D8
:101458005B68012B03D03B685B68022B06D13B68B5
:101468009B681A4639697868FFF713FF3B681B6960
:101478001A4639697868FFF73AFF3B685B68022BC0
:1014880011D13B69FF2B07D83B685B691A4639695C
:101498007868FFF75AFF06E03B685B691A463969C6
:1014A8007868FFF780FF7B6901337B613B681A68C6
:1014B8007B6922FA03F3002BB7D13B685B68012BE9
:1014C80003D03B685B68022B07D13B6819683B680F
:1014D800DB681A467868FFF7C5FE002318461837F8
:1014E800BD4680BD80B483B000AF78607B684FF69E
:1014F800FF721A607B6803225A607B6800229A6038
:101508007B680022DA607B6800221A617B6800220F
:101518005A6100BF0C37BD4680BC704780B483B0A9
:1015280000AF78607B681B6803F04003402B01D153
:10153800012300E0002318460C37BD4680BC7047E5
:1015480080B483B000AF786039603B689BB21A46BC
:101558007B681A6100BF0C37BD4680BC704780B5F8
:1015680084B000AF786039600123FB737868FFF7B7
:10157800D5FF0346002B3BD17B681B6823F47F43D0
:1015880023F0BF033A6811683A68526811433A6811
:10159800D26811433A68126911433A685269114393
:1015A8003A68926911433A68D26911433A68126AF3
:1015B8000A431A437B681A607B685B6823F470638C
:1015C80023F004033A6891683A685269120C0A4396
:1015D8001A437B685A603B681B6AB3F5005F05D104
:1015E8003B685B6A19467868FFF7AAFF0023FB731C
:1015F8007B68DB6923F400627B68DA61FB7B184651
:101608001037BD4680BD80B483B000AF78607B687A
:1016180000221A607B6800225A607B684FF4E062FF
:101628009A607B680022DA607B6800221A617B6816
:1016380000225A617B6800229A617B680022DA6185
:101648007B6800221A627B6807225A6200BF0C3747
:10165800BD4680BC704780B483B000AF7860396005
:101668007B683A689A6200BF0C37BD4680BC7047F9
:1016780080B483B000AF786039607B683A68DA621A
:1016880000BF0C37BD4680BC704780B483B000AF44
:10169800786039607B683A681A6300BF0C37BD46CA
:1016A80080BC704780B483B000AF786039607B68D5
:1016B8003A685A6300BF0C37BD4680BC704780B497
:1016C80083B000AF786039607B683A689A6300BF7E
:1016D8000C37BD4680BC704780B483B000AF7860DB
:1016E80039607B683A68DA6300BF0C37BD4680BC56
:1016F800704780B483B000AF786039607B683A681F
:101708001A6400BF0C37BD4680BC704780B483B0F4
:1017180000AF786039607B689B6C7B683A689A6434
:1017280000BF0C37BD4680BC704780B483B000AFA3
:10173800786039607B683A68DA6400BF0C37BD4668
:1017480080BC704780B483B000AF78607B685B6909
:1017580043F001027B685A6100BF0C37BD4680BC6C
:10176800704780B483B000AF78607B6800221A802D
:101778007B6800225A607B684FF0FF329A607B6872
:101788000022DA607B6800221A7400BF0C37BD465D
:1017980080BC704780B584B000AF786039607B68E2
:1017A8001B68FB607B68394A93420FD07B68B3F1B2
:1017B800804F0BD07B68364A934207D07B68354A06
:1017C800934203D07B68344A934206D1FB6823F0E6
:1017D80070023B685B681343FB607B682B4A93424B
:1017E8001BD07B68B3F1804F17D07B68284A93429F
:1017F80013D07B68274A93420FD07B68264A9342CE
:101808000BD07B68254A934207D07B68244A9342D1
:1018180003D07B68234A934206D1FB6823F44072C5
:101828003B68DB681343FB607B68FA681A603B68B7
:101838009B6819467868FFF71BFF3B681B881946A9
:101848007868FFF708FF7B68104A93420FD07B68DF
:10185800114A93420BD07B68104A934207D07B68A9
:101868000F4A934203D07B680E4A934205D13B68E6
:101878001B7C19467868FFF708FF7868FFF762FF56
:10188800002318461037BD4680BD00BF002C01401C
:1018980000040040000800400034014000400140BE
:1018A800004401400048014080B483B000AF786034
:1018B8007B6800221A607B6800225A607B680022DD
:1018C8009A607B680022DA607B6800221A617B6874
:1018D80000225A617B6800229A617B680022DA61E3
:1018E80000BF0C37BD4680BC704780B586B000AFDE
:1018F800F860B9607A600123FB75BB68B3F5801F97
:1019080045D0BB68B3F5801F48D8BB68B3F5803FA6
:1019180036D0BB68B3F5803F40D8BB68B3F5805F6D
:1019280027D0BB68B3F5805F38D8BB68B3F5807F34
:1019380018D0BB68B3F5807F30D8BB68012B03D0C3
:10194800BB68102B07D029E07968F86800F02CF8FC
:101958000346FB7523E07968F86800F0A5F80346AC
:10196800FB751CE07968F86800F022F90346FB75FE
:1019780015E07968F86800F09FF90346FB750EE0FA
:101988007968F86800F01CFA0346FB7507E0796887
:10199800F86800F079FA0346FB7500E000BFFB7DAC
:1019A80018461837BD4680BD80B586B000AF786050
:1019B80039607B681B6A23F001027B681A627B68C6
:1019C8001B6A7B617B685B683B617B689B69FB602A
:1019D800FB6823F00303FB60FB6823F4803323F0E8
:1019E80070033A6812681343FB607B6923F00202B4
:1019F8003B681B6913437B617B6923F001023B68E9
:101A08005B6813437B617B68224A93420FD07B68F3
:101A1800214A93420BD07B68204A934207D07B68C7
:101A28001F4A934203D07B681E4A93421ED17B69AA
:101A380023F008023B685B699B0013437B617B6969
:101A480023F004023B689B689B0013437B613B695E
:101A580023F480723B689B6913433B613B6923F421
:101A680000723B68DB695B0013433B617B683A6942
:101A78005A607B68FA689A613B68DB68194678683F
:101A8800FFF710FE7B687A691A6200231846183738
:101A9800BD4680BD002C014000340140004001409B
:101AA800004401400048014080B586B000AF78602E
:101AB80039607B681B6A23F010027B681A627B68B6
:101AC8001B6A7B617B685B683B617B689B69FB6029
:101AD800FB6823F44073FB60FB6823F0807323F4F6
:101AE800E0433A68126812021343FB607B6923F0F3
:101AF80020023B681B691B0113437B617B6923F050
:101B080010023B685B681B0113437B617B68234AB7
:101B180093420FD07B68224A93420BD07B68214ABC
:101B2800934207D07B68204A934203D07B681F4AC0
:101B380093421FD17B6923F080023B685B699B015C
:101B480013437B617B6923F040023B689B689B01E0
:101B580013437B613B6923F480623B689B699B006C
:101B680013433B613B6923F400623B68DB69DB009C
:101B780013433B617B683A695A607B68FA689A61EB
:101B88003B68DB6819467868FFF799FD7B687A69D6
:101B98001A62002318461837BD4680BD002C014044
:101BA8000034014000400140004401400048014029
:101BB80080B586B000AF786039607B681B6A23F413
:101BC80080727B681A627B681B6A7B617B685B68D2
:101BD8003B617B68DB69FB60FB6823F00303FB6008
:101BE800FB6823F4803323F070033A6812681343C8
:101BF800FB607B6923F400723B681B691B0213437B
:101C08007B617B6923F480723B685B681B0213432A
:101C18007B617B68234A93420FD07B68224A9342B8
:101C28000BD07B68214A934207D07B68204A9342B5
:101C380003D07B681F4A93421FD17B6923F400625B
:101C48003B685B699B0213437B617B6923F4806279
:101C58003B689B689B0213437B613B6923F480527A
:101C68003B689B691B0113433B613B6923F40052AA
:101C78003B68DB695B0113433B617B683A695A60E7
:101C88007B68FA68DA613B68DB6819467868FFF7B1
:101C980023FD7B687A691A62002318461837BD4607
:101CA80080BD00BF002C01400034014000400140CD
:101CB800004401400048014080B586B000AF78601C
:101CC80039607B681B6A23F480527B681A627B68E0
:101CD8001B6A7B617B685B683B617B68DB69FB60D7
:101CE800FB6823F44073FB60FB6823F0807323F4E4
:101CF800E0433A68126812021343FB607B6923F4DD
:101D080000523B681B691B0313437B617B6923F407
:101D180080523B685B681B0313437B617B68234AE3
:101D280093420FD07B68224A93420BD07B68214AAA
:101D3800934207D07B68204A934203D07B681F4AAE
:101D480093421FD17B6923F400423B685B699B0384
:101D580013437B617B6923F480423B689B689B0348
:101D680013437B613B6923F480423B689B699B0179
:101D780013433B613B6923F400423B68DB69DB01A9
:101D880013433B617B683A695A607B68FA68DA6199
:101D98003B68DB6819467868FFF7ABFC7B687A69B3
:101DA8001A62002318461837BD4680BD002C014032
:101DB8000034014000400140004401400048014017
:101DC80080B584B000AF786039607B681B6A23F403
:101DD80080327B681A627B681B6AFB607B681B6DBC
:101DE800BB60BB6823F4803323F070033A68126841
:101DF8001343BB60FB6823F400323B681B691B0478
:101E08001343FB60FB6823F480323B685B681B0468
:101E18001343FB607B68174A93420FD07B68164ACE
:101E280093420BD07B68154A934207D07B68144ACB
:101E3800934203D07B68134A934209D17B685B685D
:101E480023F480323B689B691B021A437B685A6003
:101E58007B68BA681A653B68DB6819467868FFF7DB
:101E680055FC7B68FA681A62002318461037BD468D
:101E780080BD00BF002C01400034014000400140FB
:101E8800004401400048014080B584B000AF78604C
:101E980039607B681B6A23F480127B681A627B684E
:101EA8001B6AFB607B681B6DBB60BB6823F080739B
:101EB80023F4E0433A68126812021343BB60FB68DC
:101EC80023F400123B681B691B051343FB60FB6886
:101ED80023F480123B685B681B051343FB607B6837
:101EE800164A93420FD07B68154A93420BD07B6801
:101EF800144A934207D07B68134A934203D07B6805
:101F0800124A934209D17B685B6823F480223B68BC
:101F18009B699B021A437B685A607B68BA681A659A
:101F28003B68DB6819467868FFF7FFFB7B68FA684F
:101F38001A62002318461037BD4680BD002C0140A8
:101F48000034014000400140004401400048014085
:101F580070B50D4D0D4C641BA4100026A64209D186
:101F68000B4D0C4C00F05CFF641BA4100026A6422D
:101F780005D170BD55F8043B98470136EEE755F892
:101F8800043B98470136F2E7402E0008402E00082F
:101F9800402E0008442E0008656477696E00000032
:101FA800466F6E745F377831302C20726564206F0D
:101FB8006E20626C61636B2C206C6F72656D20699A
:101FC8007073756D20646F6C6F7220736974206113
:101FD8006D657400466F6E745F31317831382C202E
:101FE800677265656E2C206C6F72656D2069707301
:101FF800756D0000466F6E745F31367832360000BA
:10200800424C41434B000000424C55450000000043
:1020180052454400475245454E0000004359414E41
:10202800000000004D4147454E54410059454C4C75
:102038004F57000057484954450000000000000071
:102048000000000000000000000000000000000088
:102058000000000000000000000000000000000078
:102068000000000C000C000C000C000C000C000C14
:10207800000C000C000C000C0000000C000C000010
:10208800000000000000001B001B001B001B001BC1
:102098000000000000000000000000000000000038
:1020A800000000000000000000008019801980195D
:1020B8008019C07FC07F80190033C07FC07F003384
:1020C8000033003300330000000000000000001E51
:1020D800003F807580650074003C001E0007800585
:1020E800806580658075003F001E000400040000C4
:1020F8000000007000D840D8C0D880D9007300060E
:10210800000C801BC036C066C046C00680030000B5
:10211800000000000000001E003F003300330033C1
:10212800001E000CC03CC066806380618063C03EB6
:10213800801C0000000000000000000C000C000CD7
:10214800000C000C0000000000000000000000006F
:1021580000000000000000000000000080000001F6
:102168000003000600060004000C000C000C000C24
:10217800000C000C000400060006000300018000AB
:10218800002000100018000C000C000400060006D7
:1021980000060006000600060004000C000C0018EB
:1021A800001000200000000C002D003F001E00332E
:1021B8000000000000000000000000000000000017
:1021C8000000000000000000000000000000000CFB
:1021D800000C000C000CC0FFC0FF000C000C000C31
:1021E800000C0000000000000000000000000000DB
:1021F80000000000000000000000000000000000D7
:10220800000000000000000C000C0004000400089E
:1022180000000000000000000000000000000000B6
:102228000000001E001E000000000000000000006A
:102238000000000000000000000000000000000096
:102248000000000000000000000000000000000C7A
:10225800000C000000000000000000030003000361
:102268000006000600060006000C000C000C000C1E
:102278000018001800180000000000000000001EF0
:10228800003F0033806180618061806D806D806176
:10229800806180610033003F001E000000000000E4
:1022A80000000006000E001E00360026000600068C
:1022B80000060006000600060006000600060000EC
:1022C800000000000000001E003F807380618061F4
:1022D800800100030006000C001800300060807FB9
:1022E800807F0000000000000000001C003E00632A
:1022F80000630003000E000E00038001800180616E
:102308008073003F001E000000000000000000066F
:10231800000E000E001E001E001600360036006675
:10232800807F807F00060006000600000000000095
:102338000000007F007F006000600060006E007F8A
:1023480080638001800180618073003F001E00006F
:10235800000000000000001E003F80338061006024
:10236800006E007F80738061806180618033003FF0
:10237800001E0000000000000000807F807F8001B8
:102388000003000300060006000C000C000C000807
:102398000018001800180000000000000000001ECF
:1023A800003F8063806180610021001E003F8061E2
:1023B800806180618061003F001E00000000000015
:1023C8000000001E003F007380618061806180739F
:1023D800803F801D800180610073003F001E000067
:1023E8000000000000000000000000000000000CD9
:1023F800000C000000000000000000000000000CBD
:10240800000C0000000000000000000000000000B8
:1024180000000000000C000C00000000000000009C
:102428000000000C000C000400040008000000007C
:102438000000000080008003000E003800600038B3
:10244800000E800380000000000000000000000073
:1024580000000000000000000000807F807F000076
:102468000000807F807F0000000000000000000066
:1024780000000000000000000000000000400070A4
:10248800001C000780010007001C007000400000CD
:1024980000000000000000000000001F803FC07125
:1024A800C060C000C00180030007000E000C000CD3
:1024B8000000000C000C0000000000000000001EDE
:1024C800003F803180718063806F806D806D806F88
:1024D800806700600032003E001C00000000000021
:1024E8000000000E000E001B001B001B001B8031AB
:1024F8008031803F803F8031C060C060C060000094
:10250800000000000000007C007E006300630063A0
:102518000063007E007E0063806180618063007FCD
:10252800007E0000000000000000001E003F803117
:102538008061006000600060006000600060806191
:102548008031003F001E0000000000000000007CF9
:10255800007F006380638061806180618061806149
:10256800806100630063007E007C000000000000C2
:102578000000807F807F0060006000600060007F56
:10258800007F0060006000600060807F807F000046
:10259800000000000000807F807F00600060006015
:1025A8000060007F007F00600060006000600060E5
:1025B80000600000000000000000001E003F8031A5
:1025C800806100600060006080638063806180617A
:1025D8008031803F001E0000000000000000806184
:1025E80080618061806180618061807F807F80619F
:1025F800806180618061806180610000000000006E
:102608000000003F003F000C000C000C000C000C08
:10261800000C000C000C000C000C003F003F0000F8
:10262800000000000000800180018001800180011D
:102638008001800180018001806180618073003F9A
:10264800001E0000000000000000C0608061006300
:1026580000660066006C0078007C00660066006317
:1026680080618061C0600000000000000000006020
:102678000060006000600060006000600060006052
:10268800006000600060807F807F00000000000024
:102698000000C071C071C07BC07AC06AC06AC06ED9
:1026A800C064C060C060C060C060C060C06000003E
:1026B8000000000000008071807180798079807945
:1026C800806D806D806D80658067806780678063BE
:1026D80080630000000000000000001E003F00337F
:1026E80080618061806180618061806180618061DA
:1026F8000033003F001E0000000000000000007EC4
:10270800007F80638061806180618063007F007EDC
:1027180000600060006000600060000000000000D1
:102728000000001E003F003380618061806180618D
:1027380080618061806580670033803F401E0000B3
:10274800000000000000007E007F806380618061DF
:102758008063007F007E00660063006380618061A3
:10276800C0600000000000000000000E001F803163
:10277800803100300038001E0007800380618061CE
:102788008031003F001E0000000000000000C0FF74
:10279800C0FF000C000C000C000C000C000C000C1E
:1027A800000C000C000C000C000C000000000000E5
:1027B80000008061806180618061806180618061EA
:1027C80080618061806180618073003F001E00002D
:1027D800000000000000C060C060C060803180312F
:1027E8008031001B001B001B001B000E000E000E9A
:1027F80000040000000000000000C0C0C0C0C0C04D
:10280800C0C0C0C0C0CC804C804C805E805280521A
:102818008073806180610000000000000000C0C07B
:10282800806080610033003B001E000C000C001E1D
:10283800001F003B80718061C0C0000000000000E4
:102848000000C0C08061806100330033001E001E9C
:10285800000C000C000C000C000C000C000C00001C
:10286800000000000000803F803F8001000300035B
:102878000006000C000C0018001800300060807F73
:10288800807F000000000000000F000F000C000C0B
:10289800000C000C000C000C000C000C000C000CD0
:1028A800000C000C000C000C000F000F00000018BA
:1028B80000180018000C000C000C000C00060006A4
:1028C80000060006000300030003000000000000EB
:1028D800001E001E00060006000600060006000690
:1028E80000060006000600060006000600060006B0
:1028F800001E001E0000000C000C001E0012003319
:1029080000338061806100000000000000000000CA
:1029180000000000000000000000000000000000AF
:10292800000000000000000000000000000000009F
:102938000000000000000000E0FF00000000003878
:102948000018000C0000000000000000000000005B
:10295800000000000000000000000000000000006F
:1029680000000000000000000000001F803F8061A0
:102978008001801F803F80618063807FC0380000B5
:102988000000000000000060006000600060006E51
:10299800007F807380618061806180618073007FC7
:1029A800006E0000000000000000000000000000B1
:1029B8000000001E003F807380610060006080613D
:1029C8008073003F001E000000000000000080012E
:1029D800800180018001801D803F8073806180615B
:1029E800806180618073803F801D000000000000CE
:1029F80000000000000000000000001E003F0073FF
:102A08008061807F807F00608071003F001E000031
:102A1800000000000000C007C00F000C000C807F01
:102A2800807F000C000C000C000C000C000C000C4B
:102A3800000C000000000000000000000000000082
:102A4800801D803F807380618061806180618073B8
:102A5800803F801D80018063007F003E0000006091
:102A6800006000600060006F807F8071806180611D
:102A780080618061806180618061000000000000E9
:102A880000000006000600000000003E003E0006B0
:102A98000006000600060006000600060006000004
:102AA800000000000006000600000000003E003E96
:102AB80000060006000600060006000600060006DE
:102AC80000060046007E003C0000006000600060D8
:102AD8000060806100630066006C007C0076006323
:102AE80000638061C0600000000000000000003E3C
:102AF800003E000600060006000600060006000666
:102B0800000600060006000600060000000000009F
:102B18000000000000000000000080DDC0FFC0CE03
:102B2800C0CCC0CCC0CCC0CCC0CCC0CCC0CC0000C9
:102B38000000000000000000000000000000006F1E
:102B4800807F807180618061806180618061806147
:102B5800806100000000000000000000000000008C
:102B68000000001E003F8073806180618061806189
:102B78008073003F001E00000000000000000000FD
:102B880000000000006E007F8073806180618061BA
:102B980080618073007F006E0060006000600060EC
:102BA8000000000000000000801D803F80738061ED
:102BB8008061806180618073803F801D8001800119
:102BC8008001800100000000000000000000006794
:102BD800803F0039003000300030003000300030D5
:102BE80000300000000000000000000000000000AD
:102BF8000000001E803F80610060007F803F8001F0
:102C08008061007F001E000000000000000000003E
:102C1800000800180018007F007F0018001800182E
:102C2800001800180018801F800F00000000000026
:102C380000000000000000000000806180618061E9
:102C480080618061806180618063807F803D000059
:102C58000000000000000000000000000000C0604C
:102C6800803180318031001B001B001B000E000EDC
:102C78000006000000000000000000000000000046
:102C8800000080DD80DD80DD0055005500550077AF
:102C98000077002200220000000000000000000071
:102CA800000000000000806100330033001E000CAB
:102CB800000C001E0033003380610000000000009B
:102CC8000000000000000000806180618031003356
:102CD8000033001B001B001B000E000E000E001C22
:102CE800007C007000000000000000000000C07FB1
:102CF800C07F800100030006000C00180030C07F70
:102D0800C07F000000000000800380070006000666
:102D1800000600060006000E001C001C000E00063F
:102D2800000600060006000680078003000600066D
:102D3800000600060006000600060006000600065B
:102D4800000600060006000600060006000600064B
:102D58000038003C000C000C000C000C000C000EAD
:102D680000070007000E000C000C000C000C000C03
:102D7800003C0038000000000000000000000000D7
:102D880000008038807F004700000000000000003D
:102D980000000000000000000F0180961180FFB1C4
:102DA80003012C2DB203012C2DB306012C2D012C6F
:102DB8002DB40107C003A20284C101C5C2020A00E2
:102DC800C3028A2AC4028AEEC5010E2000360160B9
:102DD8003A010500022A040000007F2B04000000CD
:102DE8007F00000004E010021C07123732292D2949
:102DF800252B3900010310E110031D07062E2C298D
:102E08002D2E2E373F0000021013800A29806400FF
:102E18000000000000000000010203040607080982
:102E2800F8B500BFF8BC08BC9E467047F8B500BFAF
:082E3800F8BC08BC9E4670477F
:042E4000FD01000888
:042E4400D9010008A8
:102E48000B1200004420000840802000A0008000F1
:082E5800020100000024F40057
:04000005080011C915
:00000001FF
